:020000040800F2
:100000000000022009110008390600083B0600081C
:100010003D0600083F0600084106000800000000F9
:10002000000000000000000000000000430600087F
:1000300045060008000000004706000849060008C1
:1000400059110008591100085911000859110008E8
:1000500059110008591100085911000859110008D8
:1000600059110008591100085911000859110008C8
:1000700059110008591100085911000859110008B8
:1000800059110008591100085911000859110008A8
:100090005911000859110008591100085911000898
:1000A0005911000859110008591100085911000888
:1000B0005911000859110008591100085911000878
:1000C0005911000859110008591100085911000868
:1000D0005911000859110008591100085911000858
:1000E0005911000859110008591100085911000848
:1000F0005911000859110008591100085911000838
:100100005911000859110008591100085911000827
:100110005911000859110008591100085911000817
:100120005911000859110008591100085911000807
:1001300059110008000000000000000059110008DB
:1001400059110008591100085911000859110008E7
:1001500059110008591100085911000859110008D7
:1001600059110008591100085911000859110008C7
:100170005911000859110008591100080000000029
:1001800000000000591100080000000000000000FD
:10019000591100080000000000000000591100087B
:1001A00000000000000000000000000059110008DD
:1001B0005911000859110008591100085911000877
:0401C00059110008C9
:1001C40010B5054C237833B9044B13B10448AFF38D
:1001D40000800123237010BD0C00002000000000EB
:1001E400B411000808B5034B1BB103490348AFF32E
:1001F400008008BD0000000010000020B4110008B9
:1002040053B94AB9002908BF00281CBF4FF0FF3179
:100214004FF0FF3000F088B9ADF1080C6DE904CE61
:1002240000F006F8DDF804E0DDE9022304B07047CD
:100234002DE9F047089D8E4604468846002B4AD196
:100244008A42174662D9B2FA82F64EB1C6F1200349
:1002540001FA06F820FA03F3B74043EA0808B44069
:100264004FEA174E1FFA87FCB8FBFEF1230C0EFB76
:10027400118843EA084301FB0CF29A4209D9FB189E
:1002840001F1FF3080F0EA809A4240F2E7800239BF
:100294003B449A1AA3B2B2FBFEF00EFB102243EACF
:1002A400024300FB0CFC9C4509D9FB1800F1FF320A
:1002B40080F0D6809C4540F2D3803B44023840EA2B
:1002C4000140A3EB0C0300211DB1F3400022C5E95A
:1002D4000032BDE8F0878B4205D90DB1C5E90001B4
:1002E40000210846F5E7B3FA83F1002946D17345A6
:1002F40002D3824200F20581841A6EEB03020120CC
:100304009046002DE5D0C5E90048E2E7002A00F058
:100314009080B2FA82F6002E40F0A4808A1A030C70
:100324004FEA174E80B2BCB20121B2FBFEFC0EFBB9
:100334001C2243EA024304FB0CF29A4207D9FB183D
:100344000CF1FF3802D29A4200F2E080C4469B1AB4
:10035400B3FBFEF20EFB123340EA034302FB04F448
:100364009C4207D9FB1802F1FF3002D29C4200F2F2
:10037400CA8002461B1B42EA0C40A5E7C1F12006D5
:100384008B4022FA06F71F430EFA01F420FA06F313
:100394002EFA06FE4FEA1749234300FA01F81FFA22
:1003A40087FCBEFBF9F01C0C09FB10EE44EA0E447A
:1003B40000FB0CFEA64502FA01F209D93C1900F132
:1003C400FF3A80F09C80A64540F2998002383C4474
:1003D400A4EB0E041FFA83FEB4FBF9F309FB1344E8
:1003E4004EEA044403FB0CFCA44508D93C1903F170
:1003F400FF3E80F08280A4457FD9023B3C4443EA1F
:100404000040A4EB0C04A0FB02EC64457346E146F7
:1004140062D35FD05DB1B8EB030264EB090404FA64
:1004240006F622FA01F31E43CC40C5E9006400211C
:100434004FE7B1FBF2FC010C41EA0E4180B240EA05
:1004440001423B4638463C46B846BE462026B1FBF0
:10045400F7F1A2EB080241EA0C4166E7014618E70E
:1004640010462CE7C6F120022EFA02F3B740B14041
:1004740020FA02F24FEA174E0A43B3FBFEF8BCB26D
:100484000EFB1833110C41EA034108FB04F9B04098
:1004940089454FEA104380B23ED9791808F1FF3CF0
:1004A40001D289451FD8A1EB0901B1FBFEF909FB73
:1004B40004F80EFB191192B242EA0142424529D2D4
:1004C400BA1809F1FF31C4D24245C2D2A9F10201DE
:1004D4003A44BEE7F0459DD2BEEB02036CEB070C39
:1004E4000138E14696E7A7EB09094944A8F1020C53
:1004F400B1FBFEF909FB04F8DBE773467FE75046DE
:1005040066E70846FDE63B44023A33E7ACF1020CE9
:100514003B441CE749469CE7A1EB0901C446B1FBF7
:10052400FEF909FB04F8C4E7704700BF30B587B093
:1005340000240194029403940494059400940E4BB3
:100544001A6B42F002021A631B6B03F0020300935E
:10055400009B0A4D2246FF21284600F0E9FCFF23B8
:100564000193012302930394049401A9284600F003
:10057400EFFB07B030BD00BF00380240000402406A
:1005840072B6FEE700B595B03422002107A800F04A
:10059400E2FD0023029303930493059306930093CF
:1005A400194A116C41F080511164126C02F08052AE
:1005B4000092009A019315490A6822F4404242F4D9
:1005C40080420A600A6802F440420192019A0222BF
:1005D400079201220A9210220B920D9307A800F0B1
:1005E40095F968B90F2302930021039104910591B1
:1005F400069102A800F046F820B915B05DF804FB96
:10060400FFF7BEFFFFF7BCFF003802400070004058
:1006140008B500F02DFDFFF7B5FFFFF787FFFF21B9
:10062400034800F08BFC4FF47A7000F04DFDF6E7C0
:1006340000040240FEE7FEE7FEE7FEE7FEE7704740
:100644007047704708B500F02DFD08BD82B0002149
:1006540000910B4B5A6C42F480425A645A6C02F477
:1006640080420092009A01911A6C42F080521A64FE
:100674001B6C03F080530193019B02B0704700BFD1
:1006840000380240002800F09B8070B50D460446F7
:100694004F4B1B6803F00F038B4208D2CBB24C4A7A
:1006A4001370136803F00F038B4240F08B802368B0
:1006B40013F0020F17D013F0040F04D0454A9368C7
:1006C40043F4E0539360236813F0080F04D0414AC5
:1006D400936843F4604393603E4A936823F0F003C5
:1006E400A1680B439360236813F0010F32D0636851
:1006F400012B21D09A1E012A25D9364A126812F0FC
:10070400020F61D033498A6822F0030213438B60DD
:1007140000F0D4FC06462F4B9B6803F00C03626880
:10072400B3EB820F16D000F0C9FC801B41F2883372
:100734009842F0D9032042E0264A126812F4003F9E
:10074400E0D101203BE0234A126812F0007FD9D1A6
:10075400012034E01E4B1B6803F00F03AB4207D9A2
:10076400EAB21B4B1A701B6803F00F03AB422DD186
:10077400236813F0040F06D0164A936823F4E05359
:10078400E1680B439360236813F0080F07D0114A04
:10079400936823F46043216943EAC103936000F042
:1007A40021F80C4B9B68C3F303130B4AD35CD8406A
:1007B4000A4B18600A4B186800F034FC002070BD26
:1007C400012070470120FAE70120F8E70120F6E74D
:1007D400003C024000380240CC1100080800002010
:1007E4000400002008B5464B9B6803F00C03082B5B
:1007F40005D00C2B43D0042B7FD1424819E0404B49
:100804005A6802F03F025B6813F4800F12D03C4B2D
:100814005968C1F388113B480023A1FB0001FFF78D
:10082400EFFC374B5B68C3F3014301335B00B0FB60
:10083400F3F008BD324B5868C0F388104FEA401CEF
:10084400BCEB000C6EEB0E0E4FEA8E1343EA9C6376
:100854004FEA8C11B1EB0C0163EB0E03DB0043EAAE
:100864005173C90011EB000C43F1000399020023FA
:100874004FEA8C2041EA9C51FFF7C2FCD1E7204BA0
:100884005A6802F03F025B6813F4800F10D01C4BCF
:100894005968C1F388111B480023A1FB0001FFF72D
:1008A400AFFC174B5B68C3F30273B0FBF3F0C0E714
:1008B400134B5868C0F388104FEA401CBCEB000C83
:1008C4006EEB0E0E4FEA8E1343EA9C634FEA8C11D3
:1008D400B1EB0C0163EB0E03DB0043EA5173C90077
:1008E40011EB000C43F10003990200234FEA8C2022
:1008F40041EA9C51FFF784FCD3E7034899E700BF22
:100904000038024040787D010024F400002800F003
:10091400018270B582B00446036813F0010F41D020
:10092400994B9B6803F00C03042B32D0964B9B68C5
:1009340003F00C03082B27D0934B9B6803F00C03A4
:100944000C2B59D06368B3F5803F5BD0B3F5A02F6F
:100954005ED08D4B1A6822F480321A601A6822F431
:1009640080221A606368002B5CD000F0A7FB054668
:10097400854B1B6813F4003F14D100F09FFB401B10
:100984006428F5D90320CCE17F4B5B6813F4800F16
:10099400D2D07D4B1B6813F4003F03D06368002B57
:1009A40000F0BA81236813F0020F60D0764B9B6885
:1009B40013F00C0F4AD0744B9B6803F00C03082B04
:1009C4003FD0714B9B6803F00C030C2B69D0E36898
:1009D400002B75D06D4B01221A6000F06FFB0546A9
:1009E400694B1B6813F0020F61D100F067FB401BD9
:1009F4000228F5D9032094E1634B5B6813F4800F5C
:100A0400A0D0C6E7604A136843F480331360A9E7B3
:100A14005D4B1A6842F480221A601A6842F48032EC
:100A24001A609FE700F04AFB0546574B1B6813F416
:100A3400003FB7D000F042FB401B6428F5D90320E7
:100A44006FE1514B5B6813F4800FBAD14E4B1B68B6
:100A540013F0020F03D0E368012B40F05F814A4A90
:100A6400136823F0F803216943EAC1031360236880
:100A740013F0080F49D06369002B33D0434B012294
:100A8400C3F8802E00F01AFB05463F4B5B6F13F052
:100A9400020F3AD100F012FB401B0228F5D90320C3
:100AA4003FE1394B5B6813F4800F90D1CEE7364AAF
:100AB400136823F0F803216943EAC1031360D6E7FE
:100AC400324B00221A6000F0F9FA05462E4B1B68DF
:100AD40013F0020FCBD000F0F1FA401B0228F5D935
:100AE40003201EE1294B0022C3F8802E00F0E6FA11
:100AF4000546254B5B6F13F0020F06D000F0DEFABB
:100B0400401B0228F5D903200BE1236813F0040FDE
:100B140076D01D4B1B6C13F0805F33D100230193FF
:100B2400194B1A6C42F080521A641B6C03F0805308
:100B34000193019B0125164B1B6813F4807F29D078
:100B4400A368012B3AD0052B3ED00F4B1A6F22F02D
:100B540001021A671A6F22F004021A67A368002BB5
:100B64003CD000F0ABFA0646074B1B6F13F0020FA4
:100B740045D100F0A3FA801B41F288339842F3D99F
:100B84000320CEE00025D6E70038024000004742AB
:100B9400007000406B4A136843F48073136000F0E4
:100BA4008DFA0646674B1B6813F4807FC8D100F0AA
:100BB40085FA801B0228F5D90320B2E0624A136F3C
:100BC40043F001031367C9E75F4B1A6F42F0040255
:100BD4001A671A6F42F001021A67BFE700F06EFA53
:100BE4000646594B1B6F13F0020F08D000F066FA4B
:100BF400801B41F288339842F3D9032091E0EDB988
:100C0400A369002B00F08C804F4A926802F00C021A
:100C1400082A54D0022B17D04C4B00221A6600F03D
:100C24004DFA0446484B1B6813F0007F45D000F092
:100C340045FA001B0228F5D9032072E0424A136CDE
:100C440023F080531364DBE7404B00221A6600F064
:100C540035FA05463C4B1B6813F0007F06D000F0C4
:100C64002DFA401B0228F5D903205AE0E369226AD1
:100C74001343626A43EA8213A26A5208013A43EABE
:100C84000243E26A43EA0263226B43EA02732E4A96
:100C940053602E4B01221A6600F010FA04462A4BC8
:100CA4001B6813F0007F06D100F008FA001B02282D
:100CB400F5D9032035E0002033E0002031E0012B9A
:100CC40031D0214B5B6803F48001E26991422CD15D
:100CD40003F03F02216A8A4229D1616A47F6C07251
:100CE4001A40B2EB811F24D103F44031A26A5208A6
:100CF400013AB1EB024F1ED103F07062E16AB2EB2C
:100D0400016F1AD103F0E043226BB3EB027F16D1DB
:100D1400002006E001207047012002E0012000E0ED
:100D2400002002B070BD0120FBE70120F9E701209B
:100D3400F7E70120F5E70120F3E70120F1E70120BF
:100D4400EFE700BF00700040003802400000474257
:100D540000230F2B00F2E38070B582B065E0856854
:100D64004FEA430E032404FA0EF425EA0405CC6882
:100D740004FA0EF42C438460446824EA02044A68AA
:100D8400C2F300129A40224342605CE0DC0808345B
:100D940050F8242003F00705AD004FF00F0E0EFAB3
:100DA40005FE22EA0E0E0A69AA4042EA0E0240F843
:100DB40024205CE0062200E0002202FA0EF22A431C
:100DC4000234574D45F82420564A94686FEA0C02C1
:100DD40024EA0C054E6816F4801F01D04CEA040581
:100DE400504CA560E46802EA04054E6816F4001F3E
:100DF40001D04CEA04054B4CE560646802EA040542
:100E04004E6816F4003F01D04CEA0405454C656079
:100E1400246822404D6815F4803F01D04CEA040256
:100E2400404C226001330F2B77D801229A400C6882
:100E340004EA020C32EA0404F4D14C6804F003041A
:100E4400013C012C8BD94A6802F00302032A09D021
:100E5400C4685D000322AA4024EA02048A68AA4006
:100E64002243C2604A6802F00302022A8ED0046858
:100E74004FEA430E032202FA0EF224EA02044A68FD
:100E840002F0030202FA0EF2224302604A6812F4EC
:100E9400403FC7D000220192234A546C44F480445A
:100EA4005464526C02F480420192019A9C08A51C7D
:100EB4001B4A52F8255003F0030E4FEA8E0E0F2200
:100EC40002FA0EF225EA0205184A90423FF474AF82
:100ED40002F58062904216D002F58062904214D0EE
:100EE40002F58062904212D002F58062904210D0E6
:100EF40002F5806290420ED002F5806290423FF487
:100F040059AF072259E7012257E7022255E7032286
:100F140053E7042251E705224FE702B070BD704742
:100F240000380140003C014000380240000002400B
:100F34000AB181617047090481617047436901EA1C
:100F4400030221EA030141EA024181617047000082
:100F5400002808DB0901C9B200F1604000F56140D6
:100F640080F80013704700F00F000901C9B2014B6B
:100F74001954704714ED00E000B500F00700C0F10B
:100F8400070CBCF1040F28BF4FF0040C031D062B03
:100F94000FD9C31E4FF0FF3E0EFA0CF021EA0001F8
:100FA40099400EFA03FE22EA0E0241EA02005DF8BD
:100FB40004FB0023EEE70000074AD36823F4E06350
:100FC4001B041B0C000200F4E060034343F0BF6306
:100FD40043F40033D360704700ED00E010B50446DD
:100FE400054BD868C0F30220FFF7C6FF0146204630
:100FF400FFF7AEFF10BD00BF00ED00E00138B0F117
:10100400807F0BD24FF0E0235861054AF02182F82B
:1010140023100020986107221A617047012070474D
:1010240000ED00E010B504460E4B1A784FF47A73C5
:10103400B3FBF2F30C4A1068B0FBF3F0FFF7DEFFEA
:1010440068B90F2C01D901200AE0002221464FF093
:10105400FF30FFF7C3FF054B1C60002000E00120B8
:1010640010BD00BF00000020080000200400002084
:1010740008B50B4B1A6842F400721A601A6842F4FD
:1010840080621A601A6842F480721A600320FFF7C3
:1010940093FF0F20FFF7C6FFFFF7D8FA002008BD23
:1010A400003C0240034A1168034B1B780B44136055
:1010B400704700BF2800002000000020014B186882
:1010C400704700BF2800002038B50446FFF7F6FF3C
:1010D4000546B4F1FF3F02D0044B1B781C44FFF7D4
:1010E400EDFF401BA042FAD338BD00BF0000002032
:1010F400034AD2F8883043F47003C2F8883070474A
:1011040000ED00E0DFF834D00D480E490E4A00230C
:1011140002E0D458C4500433C4188C42F9D30B4AA7
:101124000B4C002301E013600432A242FBD3FFF70F
:10113400DFFF00F019F8FFF76BFA70470000022098
:10114400000000200C000020EC1100080C0000201E
:101154002C000020FEE702440346934200D170476E
:1011640003F8011BF9E7000070B50D4D0D4C641B2D
:10117400A4100026A64209D10B4D0C4C00F018F81F
:10118400641BA4100026A64205D170BD55F8043B8B
:1011940098470136EEE755F8043B98470136F2E7E5
:1011A400E4110008E4110008E4110008E811000843
:1011B400F8B500BFF8BC08BC9E467047F8B500BF40
:0811C400F8BC08BC9E46704710
:1011CC0000000000000000000102030406070809EB
:0811DC0058F0FF7F0100000044
:0411E400E901000815
:0411E800C501000835
:0C11EC0001000000100000000024F400CE
:0400000508001109D5
:00000001FF
